:060000000A128A11FC2F18
:100C9A008316031307110C30831203139700F930DC
:100CAA0083160313920005308312031392009501F1
:100CBA0008000030FC000030FB000030FA00003071
:100CCA00F900701C692E6A2E812E7408F9077508BE
:100CDA0003110318013E0319732EFA07760803114C
:100CEA000318013E03197A2EFB077708031103182C
:100CFA00013E0319812EFC070130F8000310F40DA0
:100D0A00F50DF60DF70DF80B832E01300310F30CD9
:100D1A00F20CF10CF00CFF3E031D8B2E73087204CB
:100D2A0071047004031D9A2E9B2E662E7C08F30014
:100D3A007B08F2007A08F1007908F0000800FF3019
:100D4A0083160313860085010A128A114D260A1298
:100D5A008A1183120313BB01861CB42EB52ECD2E25
:100D6A0064303B020318BA2EBB2EBD2E0130BB07DE
:100D7A003B080A128A1167270A128A1182308312E3
:100D8A000313BA00DD30B900B90BC92EBA0BC92E4C
:100D9A0083120313061DD22ED32EEA2E3B08031903
:100DAA00D72ED82EDA2E0130BB023B080A128A113E
:100DBA0067270A128A11823083120313BA00DD30C0
:100DCA00B900B90BE62EBA0BE62E83120313861D61
:100DDA00EF2EF02EF22E01308500061EF52EF62E8D
:100DEA00F82E02308500861EFB2EFC2EB12E8501C0
:100DFA00B12E0A128A110028003083120313AB00A5
:100E0A000030AA000030A9000030A80023082204FC
:100E1A00210420040319122F132F5E2F0130AC0076
:100E2A00212F0130FD000310A00DA10DA20DA30D6D
:100E3A00FD0B182F0130AC07A31F242F252F162FC7
:100E4A000130FD000310A80DA90DAA0DAB0DFD0B75
:100E5A00272F23082702031D3C2F22082602031DE1
:100E6A003C2F21082502031D3C2F20082402031CC5
:100E7A003F2F402F4F2F2008A4022108031C210FC7
:100E8A00A5022208031C220FA6022308031C230F13
:100E9A00A702281401300310A30CA20CA10CA00C69
:100EAA00FF3E031D502F0130AC02031D5D2F5E2F44
:100EBA00252F2B08A3002A08A2002908A100280828
:100ECA00A000080083120313B40065303402031C27
:100EDA006F2F702F722F6430B40083160313120819
:100EEA0083120313AD00AE010310AD0DAE0D031056
:100EFA00AD0DAE0D2D08043EAF002E080318013EBD
:100F0A00003EB0002F08B2003008B3000030A30042
:100F1A000030A2000030A1006430A0003408AD0007
:100F2A00AE01AF01B0013008F3002F08F2002E081D
:100F3A00F1002D08F0003208F4003308F500F6013C
:100F4A00F7010A128A115E260A128A11730883129D
:100F5A000313A7007208A6007108A5007008A40070
:100F6A000A128A1101270A128A118312031323080B
:100F7A00B8002208B7002108B6002008B5003508D5
:100F8A00AD003608AE003708AF003808B0000230AE
:100F9A000310B00CAF0CAE0CAD0CFF3E031DCD2FF1
:100FAA002D0895003508AD003608AE003708AF00A9
:100FBA003808B00001300310B00CAF0CAE0CAD0C09
:100FCA00FF3E031DE02F2D080139B100B10EB10D0E
:100FDA0017083106DF393106970035080139AD00A7
:100FEA00AD0E17082D06EF392D069700080083016C
:060FFA000A128A11A42E68
:02400E00793FF8
:00000001FF
